:10000000007C0020510F00008504000081040000E6
:1000100000000000000000000000000000000000E0
:100020000000000000000000000000007D0400004F
:10003000000000000000000079040000E10300005F
:1000400010B5064C2378002B07D1054B002B02D0AE
:10005000044800E000BF0123237010BD5C000020B5
:1000600000000000A0160000044B10B5002B03D0C8
:100070000349044800E000BF10BDC0460000000076
:1000800060000020A0160000024B187E4007C00F41
:100090007047C0460008004210B5FFF7F5FF002882
:1000A000FBD0074B1A00197E4907FCD5598BC907AD
:1000B00003D4598B890700D45B8B108DC0B210BD5F
:1000C00000080042F8B5002506000F002C00FFF7DD
:1000D000E3FF114A1378002B1CD1FF21230A0140B2
:1000E0004B4021020D4C5B001C5B53884C40A4B27A
:1000F000002B02D11279002A06D030700136802FF1
:1001000002D1054A013B53800135ADB2AF42DED189
:100110002000F8BD0124FBE7780000205C140000FB
:1001200010B50400FFF7B8FF2070012010BD044B8C
:10013000C0B21A7ED207FCD580B218850120704764
:10014000000800420023F0B52E4D85B007002B704B
:10015000994211D1013364242B714320FFF7E7FF4B
:10016000294EFFF791FF00280AD1002E06D1013C4D
:10017000002CF2D120000DE06980ECE7013EF0E7B1
:10018000002EF4D00126FFF787FF2B78002B03D039
:100190000020287005B0F0BDFF231840012805D0CD
:1001A00004282CD0002301202B71F3E7022103A89F
:1001B000FFF788FF80213800FFF784FF0190FFF7E9
:1001C0006BFF000284B2FFF767FF019B2418A4B203
:1001D000A34209D102AB1B79B34205D1F34302AA72
:1001E0005279DBB29A4203D01820FFF7A0FFD9E77B
:1001F00006200136FFF79BFFF6B28037C3E70620E3
:10020000F3E7C0467800002000350C000023F0B56D
:10021000394D85B003900C002B70994253D10133B6
:100220002B717F231C4201D080349C43FFF734FFA5
:100230002B78002B03D000232B70FFF72DFFC0B2CB
:10024000432803D071283CD01528EFD10123019316
:100250000120FFF76CFF0198FFF769FF019B8025E4
:10026000D8430027C0B2FFF762FF039B0293224AE4
:100270005388002B02D11679002E06D00299013B3B
:1002800053800B000E78013302933000FFF74FFFCD
:100290003B0A5E40194B7600F65A3F027E4036B26A
:1002A000013DB7B2002DE2D1380AFFF740FFF0B2AE
:1002B000FFF73DFFFFF7F0FE0F4E3378002B04D021
:1002C0003570002016E06980AAE7FF231840062851
:1002D00007D1019B803C0133DBB20193039B803348
:1002E0000393002CB4D10420FFF721FFFFF7D4FEC5
:1002F0000120347105B0F0BD780000205C140000CE
:1003000070B504000D004618B44201D1280070BD3C
:100310002078FFF70CFF0134F6E7030010B5080062
:10032000110098478022034B52015A616422024B0C
:10033000DA8010BD0044004178000020094B30B540
:10034000D96898601B69084A084C9B00814200D814
:1003500030BD4508D5611480157DED07FCD5C0186A
:10036000F4E7C046780000200040004102A5FFFFEE
:10037000F0B5194B0A00197D85B09C69002929D078
:10038000042A1FD100680F263027520004AB9B18A7
:100390000B3B9D1A01003140092919D839431970C6
:1003A000013B00099D42F5D10A200C4B01A90B80AD
:1003B0008B1898700330D8700432E068FFF7ADFFF7
:1003C00005B0F0BD022A01D10088DCE70078DAE749
:1003D0003731E4E70100F0E77800002030780000D2
:1003E000214A224B117F002908D119785878091821
:1003F0008020C9B259701E498003C861117F013144
:10040000C9B211775978F02902D85978092908D842
:100410001978494249B21970197858780918C9B23F
:100420005970117F5B78994203D18021104B890369
:10043000D961D388002B09D0D388013B9BB2D380EC
:10044000002B03D180210A4B49019961D38B002BEA
:1004500009D0D38B013B9BB2D383002B03D18022E5
:10046000044B12021A607047780000200000002040
:10047000004400419844004102BEFEE705BEFEE78D
:100480000DBEFEE70EBEFEE710230249CA681A42FF
:10049000FCD0704700080040024A53785BB2002B42
:1004A000FBDB7047000C0040074AFF3053699B0B91
:1004B0009B035361022303728279823B134383714E
:1004C000037A9B07FCD570473003002010220823D5
:1004D000F0B58FB000AFBA18D1180B00B04A31CACE
:1004E00031C331CA31C311CA11C3AE4AAE4C93688D
:1004F0005B035B0F9B005B582361916889B24B43A0
:10050000E360138B611CDB05DB0FCB770023636299
:1005100023007A2128331970FA60A36940211B69EE
:10052000A2489847002805D08022A14B12021A60E9
:100530006423E3839D4BE066236700236367636F57
:10054000E26E9342E9D2236F1B78FF2B55D0232B09
:1005500000D0B2E1237D002B05D0A369022295498A
:10056000D868FFF7DAFE230028331B78532B4DD1D0
:10057000E36E656FAB4218D9216FA26F01354E1C37
:10058000266765675B1B93423ED2E367E36F3100EA
:100590001A00606ABB6000F003FFBB683A7AED188E
:1005A000F618854B656726671A70636FA16F013B6C
:1005B0006367236F013B23677F4B1B788B420CD211
:1005C000C91AA369606A9B699847002805D08022F0
:1005D000774B12021A606423E383C04623007A2219
:1005E00028331A700023A367237D002B05D0A3694D
:1005F00001227249D868FFF790FE636F0133636789
:10060000236F013323679AE7E267BFE7522B10D1CC
:10061000631CDB7F002B05D0694B626A9A4201D8CC
:10062000684B6362A369A26F616A5869FFF775FE40
:10063000D4E74F2B03D1A36F626A1370CEE7482B28
:1006400003D1A36F626A1380C8E7572B03D1636A93
:10065000A26F1A60C2E7621CD27F6F2B0ED1002AF4
:1006600007D0636A584A043B934202D82300783388
:1006700063620121606AFFF77BFEAFE7682B0ED152
:10068000616A002A09D0504A0B1F934205D8002303
:100690002000A36778300221EDE70B88F8E7772B7D
:1006A0000ED1616A002A09D0474A0B1F934205D830
:1006B00000232000A36778300421DCE70B68F8E70B
:1006C000002A19D1472B17D1A16F72B6EFF3088218
:1006D000394B5A600A6882F308884A6810475A689A
:1006E00082F3088862B61B7A002B00D176E7A369F3
:1006F00006201B68984771E7542B08D10222533B10
:1007000023752C49A369D868FFF707FE66E74E2BCF
:100710000BD1237D002B05D1A36902222549D8687E
:10072000FFF7FBFD0023237558E7562B1ED1A36965
:1007300001222649D868FFF7F0FDA3691849032272
:100740002031D868FFF7E9FDA36901222049D86864
:10075000FFF7E3FDA36912490E222431D868FFF7A1
:10076000DCFD1C49A36921671722CCE7582B0BD16C
:10077000002A06D1A06FFFF7E1FDA3690322164905
:10078000C1E780208001F6E7592B62D1A36F656A2B
:10079000094E002B24D1F560A36903220F49B2E76B
:1007A000D81300000040004178000020A100002084
:1007B0009444004183160000F800002086160000D3
:1007C000FFFFFF1F00500020FBFFFF1F5C16000013
:1007D0005E16000060160000781600007C1600000F
:1007E000002A06D08020A3688001834201D0FFF751
:1007F000A5FD8021FA68A36F5268F6688A43F968FC
:100800009B084A60226992087A603E4A9446002B0F
:10081000C2D0FA683C491180FA68127DD207FBD534
:1008200030000022BD607968BD6806008A4201D0B0
:100830009A4208D16046F9680880F968097DC907BD
:10084000FBD59B1AE3E7B96820C8013220C1B96023
:10085000E9E75A2B00D0C1E60025636AA26F2B4856
:1008600099188B421FD1A3690122D8682849FFF744
:1008700054FD07230F222A40D0B201002D09303148
:10088000092A00DD07311022BA18D154013BF1D2F8
:100890001021A36908227918D868FFF73EFDA369E3
:1008A00003221C492FE71E782A0A72405200125A6E
:1008B0002D025540ADB20133D3E71A00303AD1B220
:1008C000092904D8A36F1B011343A36795E61A00F7
:1008D000413A052A03D8A26F373B1201F4E71A0008
:1008E000613A052A03D8A26F573B1201ECE70022B8
:1008F0002C2B03D1A36F6362A2677EE6210028310F
:100900000B70F9E704A5FFFF44A5FFFF5C1400008E
:100910008016000082160000F8B51A4F06003B7CD6
:1009200008001400002B12D1174B184A18491A64FA
:100930005A6C920B92035A645A6C0A405A64A2226F
:1009400040235200B15C0B43B35401233B74482550
:10095000FF35735DDB07DB0F12D00B4A536C9B0432
:100960009B0C9C4202D9546CA404A40C220007499D
:1009700000F016FD0123735500233B742000F8BDE1
:100980001C00FBE7F800002030030020F0020020EC
:10099000FF3F00F013B56B46DC1D044B0122210024
:1009A0005869FFF7B9FF207816BDC046F80000204F
:1009B000F7B5009001201C4D1C005B01160001934F
:1009C000EA18536910325B005B0F03339840B04262
:1009D00021D8802350681B06034353606301ED1840
:1009E00029616B69B1049B0B890C9B030B436B6101
:1009F0006B690E4908340B406B61009B64011C1944
:100A00000223E3716279823B13436371E3799B07AD
:100A1000FCD53000FEBD064BA701FF1832003800A0
:100A200000F0BEFC3900D9E730030020FF3F00F0A2
:100A30003002002010B50C000A0001000348012319
:100A40004069FFF7B5FF200010BDC046F800002048
:100A5000012307B5019004481A0001A94069FFF776
:100A6000A7FF01200EBDC046F800002070B50500AC
:100A7000C0B0080016000C0000F09BFC6B46400064
:100A8000023018706A46032376085370023B5A1EE0
:100A9000A15C5A00002901D09E4206DC0023694671
:100AA0002800FFF785FF40B070BD684601338152D2
:100AB000EDE7F7B5056808222900AB8B0600134067
:100AC000FF31002B27D080234020C024AA83093285
:100AD000AB724A7088714B71B44BB54D5A68A4051E
:100AE0002A4022435A605A692A401443B14A5C6141
:100AF0001A60B14AB14C1A615A68144080229202BD
:100B000022435A605A68920B92035A60002348713C
:100B100033713079FEBD10200A7A0242F9D0A54A1D
:100B200008721778A648A74CC7775778A648C777A2
:100B300097786784D778608C3F020743678417797A
:100B4000A7845779A08C3F020743A78497799C48D4
:100B5000E784D279E78C12021743E78440279A4A48
:100B60004F71D27FC07F120202439848824200D167
:100B7000F2E026DC8020400082421CD00BDC812A7F
:100B800004D0822A00D1BEE0802A14D1210023851E
:100B9000283102224EE081235B009A4200D12BE1F2
:100BA00000DAF8E0FF33FF339A4200D1CFE0884B00
:100BB0009A4200D1EFE02023FF35AA791343AB71AD
:100BC000A7E7902109018A426CD017DCD021C90027
:100BD0008A4222D0882109018A4200D190E0A023D4
:100BE000DB009A42E7D12800FFF75EFC8023628C8D
:100BF0005B4213433268DBB293728AE7754B9A42C9
:100C000000D1C8E0D7DD744B9A4200D152E1734B5A
:100C10009A42D0D1638C7371BDE0638C1B0A012BA7
:100C20000CD11222E38C934201D8E28C92B20023C1
:100C30006B4934312800FFF7BBFE6AE7638C1B0A5F
:100C4000022B09D14322E38C934201D8E28C92B269
:100C5000644900230431EDE7638C1B0A032BAAD1FE
:100C6000638CDBB2012B16D0002B05D0022BA2D156
:100C7000E28C5D49D2B211E059490422463101A803
:100C800000F08EFB0422E38C934201D8E28C92B2F6
:100C9000002301A9CEE7E28C5449D2B22800FFF725
:100CA000E5FE36E7638C28003371FFF7FDFBA023D8
:100CB0000322C0215B00EA543C4B3D485A6C890535
:100CC00002400A435A644622FF32AF54484A302455
:100CD0001A6490225200AC545A6B02401143922283
:100CE000596380215200A954424A1A63B02252002B
:100CF000AF545A6F10405867B2235B00E95408E7BD
:100D0000311D012296E750222385A38C0F2013402A
:100D100022002A321370A38C0340A384A38C032BDC
:100D200015D81378002B0BD0A38C08335B01EB187C
:100D30009B799B062100DB0F23852831002328E7C0
:100D4000A38C08335B01EB189B79DB06F2E72023C9
:100D50008A7913438B71DCE68022A38C0F21134028
:100D600022002A321370A38C0B40A384638C002BC7
:100D700000D020E7A38C002B00D11CE7A38C032B11
:100D800000D918E71378002B09D02022A38C083350
:100D90005B01EB185A712800FFF786FBB9E6A38CBC
:100DA000102208335B01EB18F4E7C0463003002043
:100DB000FFFFFF8FB002002030020020FF3F00F055
:100DC000F9000020F8000020FA00002002030000D3
:100DD0000103000021200000A121000021220000C9
:100DE000D8130000000000209416000088160000B0
:100DF000F0020020700200208022A38C1340220009
:100E00002A3213700F22A38C1340A384638C002B0F
:100E100000D0D0E6A38C002B00D1CCE6A38C032B12
:100E200000D9C8E623002A331B78002B20D0A38CDE
:100E300008335B01EB189B799B06ACD5A38C113270
:100E400008335B01EB181A71A38C08335B01EB18B4
:100E5000DB795B069FD5A38C203208335B01EB184E
:100E6000DA71A38C3E3A08335B01EB181A7192E7F2
:100E7000A38C08335B01EB189B79DB0600D48AE76F
:100E80001022A38C08335B01EB181A71A38C083372
:100E90005B01EB18DB799B0600D47CE7A38C9218EE
:100EA00008335B01EB18DA71A38C1F3A08335B013E
:100EB000EB18DBE70822E38C934201D8E28C92B274
:100EC000014900234831B5E600000020F8B50B4F7A
:100ED0000600380014300D00FFF7EBFD2C00002851
:100EE00008D1050008E0220031007869FFF714FD01
:100EF000241A3618002CF6D12800F8BDF80000207E
:100F000070B5084C0500200014300E00FFF7D1FD2D
:100F100003000020834204D0320029006069FFF7FB
:100F2000FBFC70BDF800002010B5084C2000143008
:100F3000FFF7BFFD03000020834205D0482362690C
:100F4000FF33D05CC007C00F10BDC046F8000020C2
:100F50000D4A0E4870B5824206D10D4A0D4B002154
:100F600093420DD100F01AF80B4C00239442F4D0B8
:100F7000D1188842F1D9E55804330D60F8E702C36F
:100F80009342FCD3EEE7C046000000205C00002046
:100F9000B00300205C000020A4160000F0B5D34A86
:100FA00085B0136800AF01331DD0D14BD149D0B209
:100FB000D962002817D1D04BD0491B78DB07DB0F53
:100FC0000BD00860136883F30888FF23110099434E
:100FD000CB4B99605368184705E00C68C9488442B8
:100FE00000D06AE10B601E21C74AC84D53688B438D
:100FF0001C390B435360C64BAB82AB8A0B43AB82AD
:10100000F960EB68FA681342FBD00123C14C8026DB
:10101000A360FFF741FAC04B6360FFF73DFA8223FC
:10102000DB016380FFF738FAAB8CB343AB84FFF787
:101030002BFABA4BEB62FFF727FAAA8CB84B134393
:10104000AB84FFF721FAAB8CFA681A43AA844022DA
:10105000FC60E9683142FCD0E9681142F9D0002512
:10106000FFF712FAFB68AF4E9D60FFF715FAAE4B23
:10107000FA685360FFF710FAC021AC4BA0487360C8
:10108000036A09061B021B0A0B4303620723B560B0
:10109000336062B60122A64D0323297811432970DB
:1010A0000F25A4490C78AC430C700C781C430C70D1
:1010B000A14C2378134323700B78FA682B400B70F4
:1010C00030230D782B430B7004239C490D6A2B436E
:1010D0000B629B4B5380954BB8607B60FB685B78E1
:1010E0005BB2002BFADB974B1A00D8698007FCD45F
:1010F00002251868A8431860D369DB07FCD40123D4
:101100001068034313601368DB07FCD4D369DB0763
:10111000FCD4D3699B07F9D48B4B1360D3695B076D
:10112000FCD4C0239B025360884B9381D3699B07F7
:10113000DB0FFBD10220156828436D4D10602A009B
:10114000303213702A00313213702A003232137099
:101150002A00333213702A00343213707C4A137021
:10116000CA6920331343CB6101237A490A781A43B1
:101170000A700F21784A10788843107010788446DE
:10118000062064462043107074480478234303709B
:1011900013780B401370602311780B431370704B5E
:1011A000FA685380FB685B785BB2002BFADB0123A3
:1011B0006C4C227813432370A378DB07FCD41F21E7
:1011C000694A1368FA60580B0840884200D105202C
:1011D000238D08409C466246644B800113400343C4
:1011E0002385FB681B689B0C0B401F2B00D1023B27
:1011F0001F200722218D034081430B432385FB6879
:101200001B68FA60DB0D1340934200D10323F96899
:10121000228D0B4056491B030A4013437F2223852E
:101220002378544813402370042322780021134369
:101230000C222370606223899343238123890B3A14
:10124000934323817F3200F0A3F800224A4B6C6164
:10125000EB6102232A83217848480B4380212370C5
:10126000474B89039960802109020160454801606C
:101270008021490199609961C0217B6809067360EA
:10128000BB681B6A1B021B0A0B43B9680B62FB6835
:10129000B260336001262C0035342800EB6914302D
:1012A0009847002800D026702378002B0CD0364BAE
:1012B000274A4C339361FFF709F9344B0860013B2F
:1012C000002BFCD10B607DE62378002BE5D1FEF7E7
:1012D000DBFE0028DFD0FEF7DFFE2328DBD12A4B20
:1012E0001B4A6833936101232B72E4E7002000005E
:1012F000F80000200420000038040040FC7F00209B
:1013000000ED00E035817307004000410008004017
:101310000C060000000C004001050100B805FF7D2F
:10132000040A000010E000E000070300E7030000EB
:10133000DE440041BF440041DF440041000400405E
:101340001440000000080042040010402AF6FFFF8D
:1013500078000020584400413C4400415944004179
:101360000640000000500041246080003FF8FFFF6D
:10137000FF8FFFFF30030020B30A000088440041C4
:101380000044004198440041D813000048E801009F
:1013900003001218934200D1704719700133F9E726
:1013A000002310B59A4200D110BDCC5CC454013367
:1013B000F8E70023C25C0133002AFBD1581E7047B6
:1013C000F8B5C046F8BC08BC9E467047F8B5C046A4
:1013D000F8BC08BC9E4670470800000010000000E2
:1013E000200000004000000080000000000100001C
:1013F0000002000000040000322E30005B417264E5
:1014000075696E6F3A58595A505D0000120100021A
:101410000200004041234DFF0002010200010403CD
:1014200009040000510A000095090000290F00007E
:10143000350A0000010F0000350A0000CD0E000043
:101440002F01000099000000890000000103000046
:10145000210100000D0200004501000000002110E4
:10146000422063308440A550C660E770088129910E
:101470004AA16BB18CC1ADD1CEE1EFF131121002B6
:1014800073325222B5529442F772D662399318835E
:101490007BB35AA3BDD39CC3FFF3DEE36224433482
:1014A00020040114E664C774A44485546AA54BB5AE
:1014B00028850995EEE5CFF5ACC58DD55336722656
:1014C00011163006D776F6669556B4465BB77AA7FE
:1014D00019973887DFF7FEE79DD7BCC7C448E558A2
:1014E0008668A7784008611802282338CCC9EDD94E
:1014F0008EE9AFF9488969990AA92BB9F55AD44AF6
:10150000B77A966A711A500A333A122AFDDBDCCB9D
:10151000BFFB9EEB799B588B3BBB1AABA66C877CC1
:10152000E44CC55C222C033C600C411CAEED8FFDED
:10153000ECCDCDDD2AAD0BBD688D499D977EB66E95
:10154000D55EF44E133E322E511E700E9FFFBEEF3D
:10155000DDDFFCCF1BBF3AAF599F788F8891A981FF
:10156000CAB1EBA10CD12DC14EF16FE18010A100E9
:10157000C230E3200450254046706760B9839893D9
:10158000FBA3DAB33DC31CD37FE35EF3B102901239
:10159000F322D2323542145277625672EAB5CBA5A5
:1015A000A89589856EF54FE52CD50DC5E234C32489
:1015B000A01481046674476424540544DBA7FAB779
:1015C0009987B8975FE77EF71DC73CD7D326F236D9
:1015D0009106B01657667676154634564CD96DC9C5
:1015E0000EF92FE9C899E9898AB9ABA94458654829
:1015F00006782768C018E1088238A3287DCB5CDB19
:101600003FEB1EFBF98BD89BBBAB9ABB754A545A78
:10161000376A167AF10AD01AB32A923A2EFD0FEDE4
:101620006CDD4DCDAABD8BADE89DC98D267C076CC8
:10163000645C454CA23C832CE01CC10C1FEF3EFFB8
:101640005DCF7CDF9BAFBABFD98FF89F176E367E18
:10165000554E745E932EB23ED10EF01E76002000E1
:101660002046656220313820323032312032303A23
:1016700031323A31300A0D00580A0D00590A0D0076
:101680005A00230A0D003E0041726475696E6F2096
:101690004C4C43004C6F67676572205A65726F004F
:0416A0000000000046
:1016A4000114000009024300020100803209040011
:1016B40000010202000005240010010424020005B8
:1016C400240600010524010001070583030800FF27
:1016D40009040100020A000000070581024000001D
:1016E400070502024000000000C2010000000800DB
:0C16F4000100000069000000410000003F
:0400000300000F5199
:00000001FF
